{
  "_format": "hh-sol-artifact-1",
  "contractName": "ComplexFunctions",
  "sourceName": "contracts/ComplexFunctions.sol",
  "abi": [
    {
      "anonymous": false,
      "inputs": [
        {
          "indexed": false,
          "internalType": "bool",
          "name": "",
          "type": "bool"
        },
        {
          "indexed": false,
          "internalType": "bytes",
          "name": "",
          "type": "bytes"
        }
      ],
      "name": "CallResponseEvent",
      "type": "event"
    },
    {
      "inputs": [
        {
          "internalType": "address",
          "name": "acc1",
          "type": "address"
        },
        {
          "internalType": "address",
          "name": "acc2",
          "type": "address"
        },
        {
          "internalType": "address",
          "name": "treasury",
          "type": "address"
        },
        {
          "internalType": "bytes[]",
          "name": "metadata",
          "type": "bytes[]"
        }
      ],
      "name": "nftLifecycle",
      "outputs": [],
      "stateMutability": "payable",
      "type": "function"
    },
    {
      "inputs": [
        {
          "internalType": "address",
          "name": "token",
          "type": "address"
        },
        {
          "internalType": "bytes",
          "name": "encodedFunctionSelector",
          "type": "bytes"
        }
      ],
      "name": "redirectForToken",
      "outputs": [
        {
          "internalType": "int256",
          "name": "responseCode",
          "type": "int256"
        },
        {
          "internalType": "bytes",
          "name": "response",
          "type": "bytes"
        }
      ],
      "stateMutability": "nonpayable",
      "type": "function"
    },
    {
      "inputs": [
        {
          "internalType": "address",
          "name": "acc1",
          "type": "address"
        },
        {
          "internalType": "address",
          "name": "acc2",
          "type": "address"
        },
        {
          "internalType": "address",
          "name": "treasury",
          "type": "address"
        }
      ],
      "name": "tokenLifecycle",
      "outputs": [],
      "stateMutability": "payable",
      "type": "function"
    },
    {
      "inputs": [
        {
          "internalType": "address",
          "name": "token",
          "type": "address"
        },
        {
          "internalType": "address",
          "name": "from",
          "type": "address"
        },
        {
          "internalType": "address",
          "name": "to",
          "type": "address"
        },
        {
          "internalType": "uint256",
          "name": "amount",
          "type": "uint256"
        }
      ],
      "name": "transferFrom",
      "outputs": [
        {
          "internalType": "int64",
          "name": "responseCode",
          "type": "int64"
        }
      ],
      "stateMutability": "nonpayable",
      "type": "function"
    },
    {
      "inputs": [
        {
          "internalType": "address",
          "name": "token",
          "type": "address"
        },
        {
          "internalType": "address",
          "name": "from",
          "type": "address"
        },
        {
          "internalType": "address",
          "name": "to",
          "type": "address"
        },
        {
          "internalType": "uint256",
          "name": "serialNumber",
          "type": "uint256"
        }
      ],
      "name": "transferFromNFT",
      "outputs": [
        {
          "internalType": "int64",
          "name": "responseCode",
          "type": "int64"
        }
      ],
      "stateMutability": "nonpayable",
      "type": "function"
    }
  ],
  "bytecode": "0x608060405234801561000f575f5ffd5b506001805f5f6006811115610027576100266101b6565b5b6006811115610039576100386101b6565b5b81526020019081526020015f2081905550600260015f60016006811115610063576100626101b6565b5b6006811115610075576100746101b6565b5b81526020019081526020015f2081905550600460015f6002600681111561009f5761009e6101b6565b5b60068111156100b1576100b06101b6565b5b81526020019081526020015f2081905550600860015f600360068111156100db576100da6101b6565b5b60068111156100ed576100ec6101b6565b5b81526020019081526020015f2081905550601060015f60046006811115610117576101166101b6565b5b6006811115610129576101286101b6565b5b81526020019081526020015f2081905550602060015f60056006811115610153576101526101b6565b5b6006811115610165576101646101b6565b5b81526020019081526020015f2081905550604060015f60068081111561018e5761018d6101b6565b5b60068111156101a05761019f6101b6565b5b81526020019081526020015f20819055506101e3565b7f4e487b71000000000000000000000000000000000000000000000000000000005f52602160045260245ffd5b613dce806101f05f395ff3fe608060405260043610610049575f3560e01c806315dacbea1461004d578063618dc65e146100895780638acb1e70146100c65780639b23d3d9146100e2578063b046226e1461011e575b5f5ffd5b348015610058575f5ffd5b50610073600480360381019061006e91906124c5565b61013a565b6040516100809190612544565b60405180910390f35b348015610094575f5ffd5b506100af60048036038101906100aa9190612699565b610252565b6040516100bd92919061276b565b60405180910390f35b6100e060048036038101906100db9190612799565b6103a7565b005b3480156100ed575f5ffd5b50610108600480360381019061010391906124c5565b610a17565b6040516101159190612544565b60405180910390f35b610138600480360381019061013391906128cb565b610b2f565b005b5f5f5f61016773ffffffffffffffffffffffffffffffffffffffff166315dacbea60e01b888888886040516024016101759493929190612969565b604051602081830303815290604052907bffffffffffffffffffffffffffffffffffffffffffffffffffffffff19166020820180517bffffffffffffffffffffffffffffffffffffffffffffffffffffffff83818316178352505050506040516101df91906129e6565b5f604051808303815f865af19150503d805f8114610218576040519150601f19603f3d011682016040523d82523d5f602084013e61021d565b606091505b50915091508161022e576015610243565b808060200190518101906102429190612a32565b5b60030b92505050949350505050565b5f60605f5f61016773ffffffffffffffffffffffffffffffffffffffff1663618dc65e60e01b878760405160240161028b929190612a5d565b604051602081830303815290604052907bffffffffffffffffffffffffffffffffffffffffffffffffffffffff19166020820180517bffffffffffffffffffffffffffffffffffffffffffffffffffffffff83818316178352505050506040516102f591906129e6565b5f604051808303815f865af19150503d805f811461032e576040519150601f19603f3d011682016040523d82523d5f602084013e610333565b606091505b50915091507f4af4780e06fe8cb9df64b0794fa6f01399af979175bb988e35e0e57e594567bc8282604051610369929190612aa5565b60405180910390a18161038c57601560405180602001604052805f815250610390565b6016815b8160030b9150809450819550505050509250929050565b5f600567ffffffffffffffff8111156103c3576103c2612575565b5b6040519080825280602002602001820160405280156103fc57816020015b6103e96123ae565b8152602001906001900390816103e15790505b50905061041a5f60065f60405180602001604052805f8152506111c1565b815f8151811061042d5761042c612ad3565b5b602002602001018190525061045260015f60405180602001604052805f8152506111fa565b8160018151811061046657610465612ad3565b5b602002602001018190525061048b60025f60405180602001604052805f8152506111fa565b8160028151811061049f5761049e612ad3565b5b60200260200101819052506104c460035f60405180602001604052805f8152506111fa565b816003815181106104d8576104d7612ad3565b5b60200260200101819052506104fd60045f60405180602001604052805f8152506111fa565b8160048151811061051157610510612ad3565b5b60200260200101819052505f60405180606001604052805f60070b81526020018473ffffffffffffffffffffffffffffffffffffffff168152602001627a120060070b81525090505f6040518061012001604052806040518060400160405280600381526020017f544b4e000000000000000000000000000000000000000000000000000000000081525081526020016040518060400160405280600281526020017f544b00000000000000000000000000000000000000000000000000000000000081525081526020018573ffffffffffffffffffffffffffffffffffffffff1681526020016040518060400160405280600481526020017f6d656d6f000000000000000000000000000000000000000000000000000000008152508152602001600115158152602001620f424060070b81526020015f151581526020018481526020018381525090505f5f61066d83620f42406008611231565b91509150601660030b82146106b7576040517f08c379a00000000000000000000000000000000000000000000000000000000081526004016106ae90612b5a565b60405180910390fd5b60166106c3898361139e565b14610703576040517f08c379a00000000000000000000000000000000000000000000000000000000081526004016106fa90612be8565b60405180910390fd5b601661070f888361139e565b1461074f576040517f08c379a000000000000000000000000000000000000000000000000000000000815260040161074690612c50565b60405180910390fd5b601661075b828a6114b0565b60070b1461079e576040517f08c379a000000000000000000000000000000000000000000000000000000000815260040161079590612cb8565b60405180910390fd5b60166107aa82896114b0565b60070b146107ed576040517f08c379a00000000000000000000000000000000000000000000000000000000081526004016107e490612d20565b60405180910390fd5b60166107fc82888b60646115c2565b1461083c576040517f08c379a000000000000000000000000000000000000000000000000000000000815260040161083390612dae565b60405180910390fd5b6016610848828a6116da565b60070b1461088b576040517f08c379a000000000000000000000000000000000000000000000000000000000815260040161088290612e16565b60405180910390fd5b6016610897828a6117ec565b60070b146108da576040517f08c379a00000000000000000000000000000000000000000000000000000000081526004016108d190612e7e565b60405180910390fd5b60166108e9828a8a60326115c2565b14610929576040517f08c379a000000000000000000000000000000000000000000000000000000000815260040161092090612f0c565b60405180910390fd5b60166109378289600a6118fe565b14610977576040517f08c379a000000000000000000000000000000000000000000000000000000000815260040161096e90612f74565b60405180910390fd5b601661098282611a13565b146109c2576040517f08c379a00000000000000000000000000000000000000000000000000000000081526004016109b990612fdc565b60405180910390fd5b60166109cd82611b22565b14610a0d576040517f08c379a0000000000000000000000000000000000000000000000000000000008152600401610a0490613044565b60405180910390fd5b5050505050505050565b5f5f5f61016773ffffffffffffffffffffffffffffffffffffffff16639b23d3d960e01b88888888604051602401610a529493929190612969565b604051602081830303815290604052907bffffffffffffffffffffffffffffffffffffffffffffffffffffffff19166020820180517bffffffffffffffffffffffffffffffffffffffffffffffffffffffff8381831617835250505050604051610abc91906129e6565b5f604051808303815f865af19150503d805f8114610af5576040519150601f19603f3d011682016040523d82523d5f602084013e610afa565b606091505b509150915081610b0b576015610b20565b80806020019051810190610b1f9190612a32565b5b60030b92505050949350505050565b5f600567ffffffffffffffff811115610b4b57610b4a612575565b5b604051908082528060200260200182016040528015610b8457816020015b610b716123ae565b815260200190600190039081610b695790505b509050610ba25f60065f60405180602001604052805f8152506111c1565b815f81518110610bb557610bb4612ad3565b5b6020026020010181905250610bda60015f60405180602001604052805f8152506111fa565b81600181518110610bee57610bed612ad3565b5b6020026020010181905250610c1360025f60405180602001604052805f8152506111fa565b81600281518110610c2757610c26612ad3565b5b6020026020010181905250610c4c60035f60405180602001604052805f8152506111fa565b81600381518110610c6057610c5f612ad3565b5b6020026020010181905250610c8560045f60405180602001604052805f8152506111fa565b81600481518110610c9957610c98612ad3565b5b60200260200101819052505f6040518061012001604052806040518060400160405280600381526020017f4e4654000000000000000000000000000000000000000000000000000000000081525081526020016040518060400160405280600381526020017f4e4654000000000000000000000000000000000000000000000000000000000081525081526020018573ffffffffffffffffffffffffffffffffffffffff1681526020016040518060400160405280600481526020017f6d656d6f0000000000000000000000000000000000000000000000000000000081525081526020015f151581526020015f60070b81526020015f1515815260200183815260200160405180606001604052805f60070b81526020018773ffffffffffffffffffffffffffffffffffffffff168152602001627a120060070b81525081525090505f5f610de783611c31565b91509150601660030b8214610e31576040517f08c379a0000000000000000000000000000000000000000000000000000000008152600401610e28906130ac565b60405180910390fd5b6016610e3d898361139e565b14610e7d576040517f08c379a0000000000000000000000000000000000000000000000000000000008152600401610e7490613114565b60405180910390fd5b6016610e89888361139e565b14610ec9576040517f08c379a0000000000000000000000000000000000000000000000000000000008152600401610ec09061317c565b60405180910390fd5b6016610ed5828a6114b0565b60070b14610f18576040517f08c379a0000000000000000000000000000000000000000000000000000000008152600401610f0f906131e4565b60405180910390fd5b6016610f2482896114b0565b60070b14610f67576040517f08c379a0000000000000000000000000000000000000000000000000000000008152600401610f5e9061324c565b60405180910390fd5b5f5f610f74835f89611d97565b92505091505f815f81518110610f8d57610f8c612ad3565b5b602002602001015190506016610fa5858b8e85611f08565b14610fe5576040517f08c379a0000000000000000000000000000000000000000000000000000000008152600401610fdc906132b4565b60405180910390fd5b6016610ff1858d6116da565b60070b14611034576040517f08c379a000000000000000000000000000000000000000000000000000000000815260040161102b9061331c565b60405180910390fd5b6016611040858d6117ec565b60070b14611083576040517f08c379a000000000000000000000000000000000000000000000000000000000815260040161107a90613384565b60405180910390fd5b6016611091858d8d85611f08565b146110d1576040517f08c379a00000000000000000000000000000000000000000000000000000000081526004016110c8906133ec565b60405180910390fd5b60166110de858c85612020565b1461111e576040517f08c379a000000000000000000000000000000000000000000000000000000000815260040161111590613454565b60405180910390fd5b601661112985611a13565b14611169576040517f08c379a0000000000000000000000000000000000000000000000000000000008152600401611160906134bc565b60405180910390fd5b601661117485611b22565b146111b4576040517f08c379a00000000000000000000000000000000000000000000000000000000081526004016111ab90613524565b60405180910390fd5b5050505050505050505050565b6111c96123ae565b60405180604001604052806111de8787612135565b81526020016111ed858561218a565b8152509050949350505050565b6112026123ae565b60405180604001604052806112168661235d565b8152602001611225858561218a565b81525090509392505050565b5f5f845f8161010001515f015160070b14801561125957505f8161010001516040015160070b145b1561127c576276a70060030b8161010001516040019060070b908160070b815250505b5f5f61016773ffffffffffffffffffffffffffffffffffffffff1634630fb65bf360e01b8a8a8a6040516024016112b5939291906138ad565b604051602081830303815290604052907bffffffffffffffffffffffffffffffffffffffffffffffffffffffff19166020820180517bffffffffffffffffffffffffffffffffffffffffffffffffffffffff838183161783525050505060405161131f91906129e6565b5f6040518083038185875af1925050503d805f8114611359576040519150601f19603f3d011682016040523d82523d5f602084013e61135e565b606091505b5091509150816113705760155f611385565b808060200190518101906113849190613924565b5b8160030b91508095508196505050505050935093915050565b5f5f5f61016773ffffffffffffffffffffffffffffffffffffffff166349146bde60e01b86866040516024016113d5929190613962565b604051602081830303815290604052907bffffffffffffffffffffffffffffffffffffffffffffffffffffffff19166020820180517bffffffffffffffffffffffffffffffffffffffffffffffffffffffff838183161783525050505060405161143f91906129e6565b5f604051808303815f865af19150503d805f8114611478576040519150601f19603f3d011682016040523d82523d5f602084013e61147d565b606091505b50915091508161148e5760156114a3565b808060200190518101906114a29190612a32565b5b60030b9250505092915050565b5f5f5f61016773ffffffffffffffffffffffffffffffffffffffff16638f8d7f9960e01b86866040516024016114e7929190613962565b604051602081830303815290604052907bffffffffffffffffffffffffffffffffffffffffffffffffffffffff19166020820180517bffffffffffffffffffffffffffffffffffffffffffffffffffffffff838183161783525050505060405161155191906129e6565b5f604051808303815f865af19150503d805f811461158a576040519150601f19603f3d011682016040523d82523d5f602084013e61158f565b606091505b5091509150816115a05760156115b5565b808060200190518101906115b49190612a32565b5b60030b9250505092915050565b5f5f5f61016773ffffffffffffffffffffffffffffffffffffffff1663eca3691760e01b888888886040516024016115fd9493929190613989565b604051602081830303815290604052907bffffffffffffffffffffffffffffffffffffffffffffffffffffffff19166020820180517bffffffffffffffffffffffffffffffffffffffffffffffffffffffff838183161783525050505060405161166791906129e6565b5f604051808303815f865af19150503d805f81146116a0576040519150601f19603f3d011682016040523d82523d5f602084013e6116a5565b606091505b5091509150816116b65760156116cb565b808060200190518101906116ca9190612a32565b5b60030b92505050949350505050565b5f5f5f61016773ffffffffffffffffffffffffffffffffffffffff16635b8f858460e01b8686604051602401611711929190613962565b604051602081830303815290604052907bffffffffffffffffffffffffffffffffffffffffffffffffffffffff19166020820180517bffffffffffffffffffffffffffffffffffffffffffffffffffffffff838183161783525050505060405161177b91906129e6565b5f604051808303815f865af19150503d805f81146117b4576040519150601f19603f3d011682016040523d82523d5f602084013e6117b9565b606091505b5091509150816117ca5760156117df565b808060200190518101906117de9190612a32565b5b60030b9250505092915050565b5f5f5f61016773ffffffffffffffffffffffffffffffffffffffff166352f9138760e01b8686604051602401611823929190613962565b604051602081830303815290604052907bffffffffffffffffffffffffffffffffffffffffffffffffffffffff19166020820180517bffffffffffffffffffffffffffffffffffffffffffffffffffffffff838183161783525050505060405161188d91906129e6565b5f604051808303815f865af19150503d805f81146118c6576040519150601f19603f3d011682016040523d82523d5f602084013e6118cb565b606091505b5091509150816118dc5760156118f1565b808060200190518101906118f09190612a32565b5b60030b9250505092915050565b5f5f5f61016773ffffffffffffffffffffffffffffffffffffffff1663efef57f960e01b878787604051602401611937939291906139cc565b604051602081830303815290604052907bffffffffffffffffffffffffffffffffffffffffffffffffffffffff19166020820180517bffffffffffffffffffffffffffffffffffffffffffffffffffffffff83818316178352505050506040516119a191906129e6565b5f604051808303815f865af19150503d805f81146119da576040519150601f19603f3d011682016040523d82523d5f602084013e6119df565b606091505b5091509150816119f0576015611a05565b80806020019051810190611a049190612a32565b5b60030b925050509392505050565b5f5f5f61016773ffffffffffffffffffffffffffffffffffffffff16637c41ad2c60e01b85604051602401611a489190613a01565b604051602081830303815290604052907bffffffffffffffffffffffffffffffffffffffffffffffffffffffff19166020820180517bffffffffffffffffffffffffffffffffffffffffffffffffffffffff8381831617835250505050604051611ab291906129e6565b5f604051808303815f865af19150503d805f8114611aeb576040519150601f19603f3d011682016040523d82523d5f602084013e611af0565b606091505b509150915081611b01576015611b16565b80806020019051810190611b159190612a32565b5b60030b92505050919050565b5f5f5f61016773ffffffffffffffffffffffffffffffffffffffff16633b3bff0f60e01b85604051602401611b579190613a01565b604051602081830303815290604052907bffffffffffffffffffffffffffffffffffffffffffffffffffffffff19166020820180517bffffffffffffffffffffffffffffffffffffffffffffffffffffffff8381831617835250505050604051611bc191906129e6565b5f604051808303815f865af19150503d805f8114611bfa576040519150601f19603f3d011682016040523d82523d5f602084013e611bff565b606091505b509150915081611c10576015611c25565b80806020019051810190611c249190612a32565b5b60030b92505050919050565b5f5f825f8161010001515f015160070b148015611c5957505f8161010001516040015160070b145b15611c7c576276a70060030b8161010001516040019060070b908160070b815250505b5f5f61016773ffffffffffffffffffffffffffffffffffffffff163463ea83f29360e01b88604051602401611cb19190613a1a565b604051602081830303815290604052907bffffffffffffffffffffffffffffffffffffffffffffffffffffffff19166020820180517bffffffffffffffffffffffffffffffffffffffffffffffffffffffff8381831617835250505050604051611d1b91906129e6565b5f6040518083038185875af1925050503d805f8114611d55576040519150601f19603f3d011682016040523d82523d5f602084013e611d5a565b606091505b509150915081611d6c5760155f611d81565b80806020019051810190611d809190613924565b5b8160030b91508095508196505050505050915091565b5f5f60605f5f61016773ffffffffffffffffffffffffffffffffffffffff1663e0f4059a60e01b898989604051602401611dd393929190613af5565b604051602081830303815290604052907bffffffffffffffffffffffffffffffffffffffffffffffffffffffff19166020820180517bffffffffffffffffffffffffffffffffffffffffffffffffffffffff8381831617835250505050604051611e3d91906129e6565b5f604051808303815f865af19150503d805f8114611e76576040519150601f19603f3d011682016040523d82523d5f602084013e611e7b565b606091505b509150915081611ed65760155f5f67ffffffffffffffff811115611ea257611ea1612575565b5b604051908082528060200260200182016040528015611ed05781602001602082028036833780820191505090505b50611eeb565b80806020019051810190611eea9190613c1b565b5b8260030b9250809550819650829750505050505093509350939050565b5f5f5f61016773ffffffffffffffffffffffffffffffffffffffff16635cfc901160e01b88888888604051602401611f439493929190613989565b604051602081830303815290604052907bffffffffffffffffffffffffffffffffffffffffffffffffffffffff19166020820180517bffffffffffffffffffffffffffffffffffffffffffffffffffffffff8381831617835250505050604051611fad91906129e6565b5f604051808303815f865af19150503d805f8114611fe6576040519150601f19603f3d011682016040523d82523d5f602084013e611feb565b606091505b509150915081611ffc576015612011565b808060200190518101906120109190612a32565b5b60030b92505050949350505050565b5f5f5f61016773ffffffffffffffffffffffffffffffffffffffff1663f7f38e2660e01b87878760405160240161205993929190613d2f565b604051602081830303815290604052907bffffffffffffffffffffffffffffffffffffffffffffffffffffffff19166020820180517bffffffffffffffffffffffffffffffffffffffffffffffffffffffff83818316178352505050506040516120c391906129e6565b5f604051808303815f865af19150503d805f81146120fc576040519150601f19603f3d011682016040523d82523d5f602084013e612101565b606091505b509150915081612112576015612127565b808060200190518101906121269190612a32565b5b60030b925050509392505050565b5f61215b83600681111561214c5761214b613d6b565b5b8261239b90919063ffffffff16565b905061218282600681111561217357612172613d6b565b5b8261239b90919063ffffffff16565b905092915050565b6121926123cd565b5f60048111156121a5576121a4613d6b565b5b8360048111156121b8576121b7613d6b565b5b036121d2576001815f019015159081151581525050612357565b600160048111156121e6576121e5613d6b565b5b8360048111156121f9576121f8613d6b565b5b0361225b575f5f9054906101000a900473ffffffffffffffffffffffffffffffffffffffff16816020019073ffffffffffffffffffffffffffffffffffffffff16908173ffffffffffffffffffffffffffffffffffffffff1681525050612356565b6002600481111561226f5761226e613d6b565b5b83600481111561228257612281613d6b565b5b0361229557818160400181905250612355565b600360048111156122a9576122a8613d6b565b5b8360048111156122bc576122bb613d6b565b5b036122cf57818160600181905250612354565b6004808111156122e2576122e1613d6b565b5b8360048111156122f5576122f4613d6b565b5b03612353575f5f9054906101000a900473ffffffffffffffffffffffffffffffffffffffff16816080019073ffffffffffffffffffffffffffffffffffffffff16908173ffffffffffffffffffffffffffffffffffffffff16815250505b5b5b5b5b92915050565b5f60015f83600681111561237457612373613d6b565b5b600681111561238657612385613d6b565b5b81526020019081526020015f20549050919050565b5f8160ff166001901b8317905092915050565b60405180604001604052805f81526020016123c76123cd565b81525090565b6040518060a001604052805f151581526020015f73ffffffffffffffffffffffffffffffffffffffff16815260200160608152602001606081526020015f73ffffffffffffffffffffffffffffffffffffffff1681525090565b5f604051905090565b5f5ffd5b5f5ffd5b5f73ffffffffffffffffffffffffffffffffffffffff82169050919050565b5f61246182612438565b9050919050565b61247181612457565b811461247b575f5ffd5b50565b5f8135905061248c81612468565b92915050565b5f819050919050565b6124a481612492565b81146124ae575f5ffd5b50565b5f813590506124bf8161249b565b92915050565b5f5f5f5f608085870312156124dd576124dc612430565b5b5f6124ea8782880161247e565b94505060206124fb8782880161247e565b935050604061250c8782880161247e565b925050606061251d878288016124b1565b91505092959194509250565b5f8160070b9050919050565b61253e81612529565b82525050565b5f6020820190506125575f830184612535565b92915050565b5f5ffd5b5f5ffd5b5f601f19601f8301169050919050565b7f4e487b71000000000000000000000000000000000000000000000000000000005f52604160045260245ffd5b6125ab82612565565b810181811067ffffffffffffffff821117156125ca576125c9612575565b5b80604052505050565b5f6125dc612427565b90506125e882826125a2565b919050565b5f67ffffffffffffffff82111561260757612606612575565b5b61261082612565565b9050602081019050919050565b828183375f83830152505050565b5f61263d612638846125ed565b6125d3565b90508281526020810184848401111561265957612658612561565b5b61266484828561261d565b509392505050565b5f82601f8301126126805761267f61255d565b5b813561269084826020860161262b565b91505092915050565b5f5f604083850312156126af576126ae612430565b5b5f6126bc8582860161247e565b925050602083013567ffffffffffffffff8111156126dd576126dc612434565b5b6126e98582860161266c565b9150509250929050565b5f819050919050565b612705816126f3565b82525050565b5f81519050919050565b5f82825260208201905092915050565b8281835e5f83830152505050565b5f61273d8261270b565b6127478185612715565b9350612757818560208601612725565b61276081612565565b840191505092915050565b5f60408201905061277e5f8301856126fc565b81810360208301526127908184612733565b90509392505050565b5f5f5f606084860312156127b0576127af612430565b5b5f6127bd8682870161247e565b93505060206127ce8682870161247e565b92505060406127df8682870161247e565b9150509250925092565b5f67ffffffffffffffff82111561280357612802612575565b5b602082029050602081019050919050565b5f5ffd5b5f61282a612825846127e9565b6125d3565b9050808382526020820190506020840283018581111561284d5761284c612814565b5b835b8181101561289457803567ffffffffffffffff8111156128725761287161255d565b5b80860161287f898261266c565b8552602085019450505060208101905061284f565b5050509392505050565b5f82601f8301126128b2576128b161255d565b5b81356128c2848260208601612818565b91505092915050565b5f5f5f5f608085870312156128e3576128e2612430565b5b5f6128f08782880161247e565b94505060206129018782880161247e565b93505060406129128782880161247e565b925050606085013567ffffffffffffffff81111561293357612932612434565b5b61293f8782880161289e565b91505092959194509250565b61295481612457565b82525050565b61296381612492565b82525050565b5f60808201905061297c5f83018761294b565b612989602083018661294b565b612996604083018561294b565b6129a3606083018461295a565b95945050505050565b5f81905092915050565b5f6129c08261270b565b6129ca81856129ac565b93506129da818560208601612725565b80840191505092915050565b5f6129f182846129b6565b915081905092915050565b5f8160030b9050919050565b612a11816129fc565b8114612a1b575f5ffd5b50565b5f81519050612a2c81612a08565b92915050565b5f60208284031215612a4757612a46612430565b5b5f612a5484828501612a1e565b91505092915050565b5f604082019050612a705f83018561294b565b8181036020830152612a828184612733565b90509392505050565b5f8115159050919050565b612a9f81612a8b565b82525050565b5f604082019050612ab85f830185612a96565b8181036020830152612aca8184612733565b90509392505050565b7f4e487b71000000000000000000000000000000000000000000000000000000005f52603260045260245ffd5b5f82825260208201905092915050565b7f546f6b656e206372656174696f6e206661696c656400000000000000000000005f82015250565b5f612b44601583612b00565b9150612b4f82612b10565b602082019050919050565b5f6020820190508181035f830152612b7181612b38565b9050919050565b7f546f6b656e204173736f6369617465206f66206661696c656420666f722061635f8201527f6331000000000000000000000000000000000000000000000000000000000000602082015250565b5f612bd2602283612b00565b9150612bdd82612b78565b604082019050919050565b5f6020820190508181035f830152612bff81612bc6565b9050919050565b7f546f6b656e204173736f6369617465206661696c656420666f722061636331005f82015250565b5f612c3a601f83612b00565b9150612c4582612c06565b602082019050919050565b5f6020820190508181035f830152612c6781612c2e565b9050919050565b7f4772616e744b7963206661696c656420666f72206163633100000000000000005f82015250565b5f612ca2601883612b00565b9150612cad82612c6e565b602082019050919050565b5f6020820190508181035f830152612ccf81612c96565b9050919050565b7f4772616e744b7943206661696c656420666f72206163633200000000000000005f82015250565b5f612d0a601883612b00565b9150612d1582612cd6565b602082019050919050565b5f6020820190508181035f830152612d3781612cfe565b9050919050565b7f5472616e7366657220746f6b656e206661696c65642066726f6d2074726561735f8201527f75727920746f2061636331000000000000000000000000000000000000000000602082015250565b5f612d98602b83612b00565b9150612da382612d3e565b604082019050919050565b5f6020820190508181035f830152612dc581612d8c565b9050919050565b7f467265657a6520746f6b656e206661696c656420666f722061636331000000005f82015250565b5f612e00601c83612b00565b9150612e0b82612dcc565b602082019050919050565b5f6020820190508181035f830152612e2d81612df4565b9050919050565b7f556e667265657a6520746f6b656e206661696c656420666f72206163633100005f82015250565b5f612e68601e83612b00565b9150612e7382612e34565b602082019050919050565b5f6020820190508181035f830152612e9581612e5c565b9050919050565b7f5472616e7366657220746f6b656e206661696c65642066726f6d2061636331205f8201527f746f206163633200000000000000000000000000000000000000000000000000602082015250565b5f612ef6602783612b00565b9150612f0182612e9c565b604082019050919050565b5f6020820190508181035f830152612f2381612eea565b9050919050565b7f5769706520746f6b656e206661696c656420666f7220616363320000000000005f82015250565b5f612f5e601a83612b00565b9150612f6982612f2a565b602082019050919050565b5f6020820190508181035f830152612f8b81612f52565b9050919050565b7f506175736520746f6b656e206661696c656400000000000000000000000000005f82015250565b5f612fc6601283612b00565b9150612fd182612f92565b602082019050919050565b5f6020820190508181035f830152612ff381612fba565b9050919050565b7f556e706175736520746f6b656e206661696c65640000000000000000000000005f82015250565b5f61302e601483612b00565b915061303982612ffa565b602082019050919050565b5f6020820190508181035f83015261305b81613022565b9050919050565b7f4e4654206372656174696f6e206661696c6564000000000000000000000000005f82015250565b5f613096601383612b00565b91506130a182613062565b602082019050919050565b5f6020820190508181035f8301526130c38161308a565b9050919050565b7f4173736f6369617465206661696c656420666f722061636331000000000000005f82015250565b5f6130fe601983612b00565b9150613109826130ca565b602082019050919050565b5f6020820190508181035f83015261312b816130f2565b9050919050565b7f4173736f6369617465206661696c656420666f722061636332000000000000005f82015250565b5f613166601983612b00565b915061317182613132565b602082019050919050565b5f6020820190508181035f8301526131938161315a565b9050919050565b7f4b5943206661696c656420666f722061636331000000000000000000000000005f82015250565b5f6131ce601383612b00565b91506131d98261319a565b602082019050919050565b5f6020820190508181035f8301526131fb816131c2565b9050919050565b7f4b5943206661696c656420666f722061636332000000000000000000000000005f82015250565b5f613236601383612b00565b915061324182613202565b602082019050919050565b5f6020820190508181035f8301526132638161322a565b9050919050565b7f4e4654207472616e7366657220746f2061636331206661696c656400000000005f82015250565b5f61329e601b83612b00565b91506132a98261326a565b602082019050919050565b5f6020820190508181035f8301526132cb81613292565b9050919050565b7f467265657a65206661696c656420666f722061636331000000000000000000005f82015250565b5f613306601683612b00565b9150613311826132d2565b602082019050919050565b5f6020820190508181035f830152613333816132fa565b9050919050565b7f556e667265657a65206661696c656420666f72206163633100000000000000005f82015250565b5f61336e601883612b00565b91506133798261333a565b602082019050919050565b5f6020820190508181035f83015261339b81613362565b9050919050565b7f4e4654207472616e7366657220746f2061636332206661696c656400000000005f82015250565b5f6133d6601b83612b00565b91506133e1826133a2565b602082019050919050565b5f6020820190508181035f830152613403816133ca565b9050919050565b7f57697065206661696c656420666f7220616363320000000000000000000000005f82015250565b5f61343e601483612b00565b91506134498261340a565b602082019050919050565b5f6020820190508181035f83015261346b81613432565b9050919050565b7f5061757365206661696c656400000000000000000000000000000000000000005f82015250565b5f6134a6600c83612b00565b91506134b182613472565b602082019050919050565b5f6020820190508181035f8301526134d38161349a565b9050919050565b7f556e7061757365206661696c65640000000000000000000000000000000000005f82015250565b5f61350e600e83612b00565b9150613519826134da565b602082019050919050565b5f6020820190508181035f83015261353b81613502565b9050919050565b5f81519050919050565b5f82825260208201905092915050565b5f61356682613542565b613570818561354c565b9350613580818560208601612725565b61358981612565565b840191505092915050565b61359d81612457565b82525050565b6135ac81612a8b565b82525050565b6135bb81612529565b82525050565b5f81519050919050565b5f82825260208201905092915050565b5f819050602082019050919050565b6135f381612492565b82525050565b5f82825260208201905092915050565b5f6136138261270b565b61361d81856135f9565b935061362d818560208601612725565b61363681612565565b840191505092915050565b5f60a083015f8301516136565f8601826135a3565b5060208301516136696020860182613594565b50604083015184820360408601526136818282613609565b9150506060830151848203606086015261369b8282613609565b91505060808301516136b06080860182613594565b508091505092915050565b5f604083015f8301516136d05f8601826135ea565b50602083015184820360208601526136e88282613641565b9150508091505092915050565b5f61370083836136bb565b905092915050565b5f602082019050919050565b5f61371e826135c1565b61372881856135cb565b93508360208202850161373a856135db565b805f5b85811015613775578484038952815161375685826136f5565b945061376183613708565b925060208a0199505060018101905061373d565b50829750879550505050505092915050565b606082015f82015161379b5f8501826135b2565b5060208201516137ae6020850182613594565b5060408201516137c160408501826135b2565b50505050565b5f61016083015f8301518482035f8601526137e2828261355c565b915050602083015184820360208601526137fc828261355c565b91505060408301516138116040860182613594565b5060608301518482036060860152613829828261355c565b915050608083015161383e60808601826135a3565b5060a083015161385160a08601826135b2565b5060c083015161386460c08601826135a3565b5060e083015184820360e086015261387c8282613714565b915050610100830151613893610100860182613787565b508091505092915050565b6138a7816129fc565b82525050565b5f6060820190508181035f8301526138c581866137c7565b90506138d46020830185612535565b6138e1604083018461389e565b949350505050565b5f6138f382612438565b9050919050565b613903816138e9565b811461390d575f5ffd5b50565b5f8151905061391e816138fa565b92915050565b5f5f6040838503121561393a57613939612430565b5b5f61394785828601612a1e565b925050602061395885828601613910565b9150509250929050565b5f6040820190506139755f83018561294b565b613982602083018461294b565b9392505050565b5f60808201905061399c5f83018761294b565b6139a9602083018661294b565b6139b6604083018561294b565b6139c36060830184612535565b95945050505050565b5f6060820190506139df5f83018661294b565b6139ec602083018561294b565b6139f96040830184612535565b949350505050565b5f602082019050613a145f83018461294b565b92915050565b5f6020820190508181035f830152613a3281846137c7565b905092915050565b5f81519050919050565b5f82825260208201905092915050565b5f819050602082019050919050565b5f613a6e8383613609565b905092915050565b5f602082019050919050565b5f613a8c82613a3a565b613a968185613a44565b935083602082028501613aa885613a54565b805f5b85811015613ae35784840389528151613ac48582613a63565b9450613acf83613a76565b925060208a01995050600181019050613aab565b50829750879550505050505092915050565b5f606082019050613b085f83018661294b565b613b156020830185612535565b8181036040830152613b278184613a82565b9050949350505050565b613b3a81612529565b8114613b44575f5ffd5b50565b5f81519050613b5581613b31565b92915050565b5f67ffffffffffffffff821115613b7557613b74612575565b5b602082029050602081019050919050565b5f613b98613b9384613b5b565b6125d3565b90508083825260208201905060208402830185811115613bbb57613bba612814565b5b835b81811015613be45780613bd08882613b47565b845260208401935050602081019050613bbd565b5050509392505050565b5f82601f830112613c0257613c0161255d565b5b8151613c12848260208601613b86565b91505092915050565b5f5f5f60608486031215613c3257613c31612430565b5b5f613c3f86828701612a1e565b9350506020613c5086828701613b47565b925050604084015167ffffffffffffffff811115613c7157613c70612434565b5b613c7d86828701613bee565b9150509250925092565b5f81519050919050565b5f82825260208201905092915050565b5f819050602082019050919050565b5f613cbb83836135b2565b60208301905092915050565b5f602082019050919050565b5f613cdd82613c87565b613ce78185613c91565b9350613cf283613ca1565b805f5b83811015613d22578151613d098882613cb0565b9750613d1483613cc7565b925050600181019050613cf5565b5085935050505092915050565b5f606082019050613d425f83018661294b565b613d4f602083018561294b565b8181036040830152613d618184613cd3565b9050949350505050565b7f4e487b71000000000000000000000000000000000000000000000000000000005f52602160045260245ffdfea2646970667358221220b9c98eb76867b08a8d118f2a2c3cb634f9f1213d955b60e142ae81146dcd230964736f6c634300081e0033",
  "linkReferences": {},
  "deployedLinkReferences": {}
}