{
  "_format": "hh-sol-artifact-1",
  "contractName": "SimpleHookContract",
  "sourceName": "contracts/SimpleHookContract.sol",
  "abi": [
    {
      "inputs": [],
      "stateMutability": "payable",
      "type": "constructor"
    },
    {
      "anonymous": false,
      "inputs": [
        {
          "indexed": true,
          "internalType": "bytes32",
          "name": "key",
          "type": "bytes32"
        },
        {
          "indexed": false,
          "internalType": "bytes32",
          "name": "value",
          "type": "bytes32"
        }
      ],
      "name": "LambdaStorageUpdate",
      "type": "event"
    },
    {
      "inputs": [
        {
          "components": [
            {
              "internalType": "address",
              "name": "owner",
              "type": "address"
            },
            {
              "internalType": "uint256",
              "name": "txnFee",
              "type": "uint256"
            },
            {
              "internalType": "uint256",
              "name": "gasCost",
              "type": "uint256"
            },
            {
              "internalType": "string",
              "name": "memo",
              "type": "string"
            },
            {
              "internalType": "bytes",
              "name": "data",
              "type": "bytes"
            }
          ],
          "internalType": "struct IHieroHook.HookContext",
          "name": "context",
          "type": "tuple"
        },
        {
          "components": [
            {
              "components": [
                {
                  "components": [
                    {
                      "internalType": "address",
                      "name": "account",
                      "type": "address"
                    },
                    {
                      "internalType": "int64",
                      "name": "amount",
                      "type": "int64"
                    }
                  ],
                  "internalType": "struct IHieroAccountAllowanceHook.AccountAmount[]",
                  "name": "hbarAdjustments",
                  "type": "tuple[]"
                },
                {
                  "components": [
                    {
                      "internalType": "address",
                      "name": "token",
                      "type": "address"
                    },
                    {
                      "components": [
                        {
                          "internalType": "address",
                          "name": "account",
                          "type": "address"
                        },
                        {
                          "internalType": "int64",
                          "name": "amount",
                          "type": "int64"
                        }
                      ],
                      "internalType": "struct IHieroAccountAllowanceHook.AccountAmount[]",
                      "name": "adjustments",
                      "type": "tuple[]"
                    },
                    {
                      "components": [
                        {
                          "internalType": "address",
                          "name": "sender",
                          "type": "address"
                        },
                        {
                          "internalType": "address",
                          "name": "receiver",
                          "type": "address"
                        },
                        {
                          "internalType": "int64",
                          "name": "serialNo",
                          "type": "int64"
                        }
                      ],
                      "internalType": "struct IHieroAccountAllowanceHook.NftTransfer[]",
                      "name": "nftTransfers",
                      "type": "tuple[]"
                    }
                  ],
                  "internalType": "struct IHieroAccountAllowanceHook.TokenTransferList[]",
                  "name": "tokens",
                  "type": "tuple[]"
                }
              ],
              "internalType": "struct IHieroAccountAllowanceHook.Transfers",
              "name": "direct",
              "type": "tuple"
            },
            {
              "components": [
                {
                  "components": [
                    {
                      "internalType": "address",
                      "name": "account",
                      "type": "address"
                    },
                    {
                      "internalType": "int64",
                      "name": "amount",
                      "type": "int64"
                    }
                  ],
                  "internalType": "struct IHieroAccountAllowanceHook.AccountAmount[]",
                  "name": "hbarAdjustments",
                  "type": "tuple[]"
                },
                {
                  "components": [
                    {
                      "internalType": "address",
                      "name": "token",
                      "type": "address"
                    },
                    {
                      "components": [
                        {
                          "internalType": "address",
                          "name": "account",
                          "type": "address"
                        },
                        {
                          "internalType": "int64",
                          "name": "amount",
                          "type": "int64"
                        }
                      ],
                      "internalType": "struct IHieroAccountAllowanceHook.AccountAmount[]",
                      "name": "adjustments",
                      "type": "tuple[]"
                    },
                    {
                      "components": [
                        {
                          "internalType": "address",
                          "name": "sender",
                          "type": "address"
                        },
                        {
                          "internalType": "address",
                          "name": "receiver",
                          "type": "address"
                        },
                        {
                          "internalType": "int64",
                          "name": "serialNo",
                          "type": "int64"
                        }
                      ],
                      "internalType": "struct IHieroAccountAllowanceHook.NftTransfer[]",
                      "name": "nftTransfers",
                      "type": "tuple[]"
                    }
                  ],
                  "internalType": "struct IHieroAccountAllowanceHook.TokenTransferList[]",
                  "name": "tokens",
                  "type": "tuple[]"
                }
              ],
              "internalType": "struct IHieroAccountAllowanceHook.Transfers",
              "name": "customFee",
              "type": "tuple"
            }
          ],
          "internalType": "struct IHieroAccountAllowanceHook.ProposedTransfers",
          "name": "",
          "type": "tuple"
        }
      ],
      "name": "allow",
      "outputs": [
        {
          "internalType": "bool",
          "name": "",
          "type": "bool"
        }
      ],
      "stateMutability": "payable",
      "type": "function"
    },
    {
      "inputs": [
        {
          "internalType": "bytes32",
          "name": "key",
          "type": "bytes32"
        }
      ],
      "name": "getStorage",
      "outputs": [
        {
          "internalType": "bytes32",
          "name": "",
          "type": "bytes32"
        }
      ],
      "stateMutability": "view",
      "type": "function"
    },
    {
      "inputs": [
        {
          "internalType": "bytes32",
          "name": "",
          "type": "bytes32"
        }
      ],
      "name": "lambdaStorage",
      "outputs": [
        {
          "internalType": "bytes32",
          "name": "",
          "type": "bytes32"
        }
      ],
      "stateMutability": "view",
      "type": "function"
    },
    {
      "inputs": [
        {
          "internalType": "bytes32",
          "name": "key",
          "type": "bytes32"
        }
      ],
      "name": "removeStorage",
      "outputs": [],
      "stateMutability": "nonpayable",
      "type": "function"
    },
    {
      "inputs": [
        {
          "internalType": "bytes32",
          "name": "key",
          "type": "bytes32"
        },
        {
          "internalType": "bytes32",
          "name": "value",
          "type": "bytes32"
        }
      ],
      "name": "setStorage",
      "outputs": [],
      "stateMutability": "nonpayable",
      "type": "function"
    }
  ],
  "bytecode": "0x6080604052610772806100136000396000f3fe60806040526004361061005a5760003560e01c806374543b2e1161004357806374543b2e146100c25780639b0b0fda146100ef578063cf0a908f1461011157600080fd5b8063124d8b301461005f5780634ba664e714610087575b600080fd5b61007261006d36600461061f565b610131565b60405190151581526020015b60405180910390f35b34801561009357600080fd5b506100b46100a23660046106df565b60009081526020819052604090205490565b60405190815260200161007e565b3480156100ce57600080fd5b506100b46100dd3660046106df565b60006020819052908152604090205481565b3480156100fb57600080fd5b5061010f61010a3660046106f8565b6101f8565b005b34801561011d57600080fd5b5061010f61012c3660046106df565b610241565b600080610141602085018561071a565b60405160200161018f91907f686f6f6b5f65786563757465645f000000000000000000000000000000000000815260609190911b6bffffffffffffffffffffffff1916600e82015260220190565b60408051808303601f1901815282825280516020918201206000818152808352929092204290819055808452919350909183917fd096d8f47b7ba83fbb1430482bd6995e3226d50d8e11983faee7c786efdb386a910160405180910390a2506001949350505050565b60008281526020818152604091829020839055905182815283917fd096d8f47b7ba83fbb1430482bd6995e3226d50d8e11983faee7c786efdb386a910160405180910390a25050565b6000818152602081815260408083208390555191825282917fd096d8f47b7ba83fbb1430482bd6995e3226d50d8e11983faee7c786efdb386a910160405180910390a250565b7f4e487b7100000000000000000000000000000000000000000000000000000000600052604160045260246000fd5b6040805190810167ffffffffffffffff811182821017156102d9576102d9610287565b60405290565b6040516060810167ffffffffffffffff811182821017156102d9576102d9610287565b604051601f8201601f1916810167ffffffffffffffff8111828210171561032b5761032b610287565b604052919050565b600067ffffffffffffffff82111561034d5761034d610287565b5060051b60200190565b803573ffffffffffffffffffffffffffffffffffffffff8116811461037b57600080fd5b919050565b8035600781900b811461037b57600080fd5b600082601f8301126103a357600080fd5b813560206103b86103b383610333565b610302565b82815260069290921b840181019181810190868411156103d757600080fd5b8286015b8481101561042457604081890312156103f45760008081fd5b6103fc6102b6565b61040582610357565b8152610412858301610380565b818601528352918301916040016103db565b509695505050505050565b60006040828403121561044157600080fd5b6104496102b6565b905067ffffffffffffffff808335111561046257600080fd5b61046f8484358501610392565b8252806020840135111561048257600080fd5b6020830135830184601f82011261049857600080fd5b6104a56103b38235610333565b81358082526020808301929160051b840101878111156104c457600080fd5b602084015b8181101561060e5785813511156104df57600080fd5b803585016060818b03601f190112156104f757600080fd5b6104ff6102df565b61050b60208301610357565b8152876040830135111561051e57600080fd5b6105318b60206040850135850101610392565b6020820152876060830135111561054757600080fd5b6060820135820191508a603f83011261055f57600080fd5b60208201356105706103b382610333565b818152606090910283016040019060208101908d83111561059057600080fd5b6040850194505b828510156105f8576060858f0312156105af57600080fd5b6105b76102df565b6105c086610357565b81526105ce60208701610357565b60208201526105df60408701610380565b6040820152825260609490940193602090910190610597565b60408401525050855250602093840193016104c9565b505060208501525091949350505050565b6000806040838503121561063257600080fd5b823567ffffffffffffffff8082111561064a57600080fd5b9084019060a0828703121561065e57600080fd5b9092506020840135908082111561067457600080fd5b908401906040828703121561068857600080fd5b6106906102b6565b82358281111561069f57600080fd5b6106ab8882860161042f565b8252506020830135828111156106c057600080fd5b6106cc8882860161042f565b6020830152508093505050509250929050565b6000602082840312156106f157600080fd5b5035919050565b6000806040838503121561070b57600080fd5b50508035926020909101359150565b60006020828403121561072c57600080fd5b61073582610357565b939250505056fea2646970667358221220c9df47419cfe1b8e4b9432c3f60333976f10b196e536f3de4eefcb43659ca25c64736f6c63430008090033",
  "linkReferences": {},
  "deployedLinkReferences": {}
}